:100000000C94D9020C9401030C9401030C94010389
:100010000C9401030C9401030C9401030C94010350
:100020000C9401030C9401030C9401030C94010340
:100030000C9401030C9401030C9401030C94010330
:100040000C9432190C9401030C9491080C946B08D5
:100050000C9401030C9401030C9401030C94010310
:100060000C94C3080C940103050800FF0C4B00001E
:100070000000003E5B4F5B3E3E6B4F6B3E1C3E7C88
:100080003E1C183C7E3C181C577D571C1C5E7F5E36
:100090001C00183C1800FFE7C3E7FF0018241800F5
:1000A000FFE7DBE7FF30483A060E2629792926408C
:1000B0007F050507407F05253F5A3CE73C5A7F3EB8
:1000C0001C1C08081C1C3E7F14227F22145F5F004A
:1000D0005F5F06097F017F006689956A60606060E6
:1000E0006094A2FFA29408047E040810207E2010D1
:1000F00008082A1C08081C2A08081E101010100CDA
:100100001E0C1E0C30383E3830060E3E0E06000027
:1001100000000000005F00000007000700147F14CB
:100120007F14242A7F2A122313086462364956203A
:10013000500008070300001C2241000041221C005F
:100140002A1C7F1C2A08083E08080080703000081E
:1001500008080808000060600020100804023E51F2
:1001600049453E00427F4000724949494621414984
:100170004D331814127F1027454545393C4A4949EB
:100180003141211109073649494936464949291E55
:100190000000140000004034000000081422411444
:1001A00014141414004122140802015909063E4196
:1001B0005D594E7C1211127C7F494949363E4141BE
:1001C00041227F4141413E7F494949417F09090917
:1001D000013E414151737F0808087F00417F410083
:1001E0002040413F017F081422417F404040407F32
:1001F000021C027F7F0408107F3E4141413E7F097F
:100200000909063E4151215E7F09192946264949BF
:10021000493203017F01033F4040403F1F204020FF
:100220001F3F4038403F63140814630304780403FD
:100230006159494D43007F414141020408102000AB
:100240004141417F0402010204404040404000031C
:1002500007080020545478407F28444438384444E8
:100260004428384444287F385454541800087E09E0
:100270000218A4A49C787F0804047800447D400000
:100280002040403D007F1028440000417F40007C1A
:10029000047804787C080404783844444438FC1812
:1002A00024241818242418FC7C08040408485454F6
:1002B000542404043F44243C4040207C1C20402023
:1002C0001C3C4030403C44281028444C9090907C8A
:1002D0004464544C4400083641000000770000009C
:1002E0004136080002010204023C2623263C1EA1DE
:1002F000A161123A4040207A38545455592155553D
:1003000079412154547841215554784020545579ED
:10031000400C1E527212395555555939545454597E
:1003200039555454580000457C410002457D420037
:1003300001457C40F0292429F0F0282528F07C5440
:100340005545002054547C547C0A097F4932494960
:1003500049323248484832324A4848303A414121CD
:100360007A3A42402078009DA0A07D394444443927
:100370003D4040403D3C24FF2424487E4943662BB9
:100380002FFC2F2BFF0929F620C0887E090320545B
:100390005479410000447D413048484A3238404059
:1003A000227A007A0A0A727D0D19317D2629292FB9
:1003B00028262929292630484D40203808080808D1
:1003C00008080808382F10C8ACBA2F102834FA00D3
:1003D000007B000008142A142222142A1408AA0000
:1003E0005500AAAA55AA55AA000000FF0010101037
:1003F000FF00141414FF001010FF00FF1010F01085
:10040000F0141414FC001414F700FF0000FF00FFA8
:100410001414F404FC141417101F10101F101F14D0
:1004200014141F00101010F0000000001F10101016
:10043000101F10101010F010000000FF101010100E
:100440001010101010FF10000000FF140000FF003B
:10045000FF00001F10170000FC04F41414171017FD
:100460001414F404F40000FF00F71414141414140A
:1004700014F700F7141414171410101F101F14147D
:1004800014F4141010F010F000001F101F000000F2
:100490001F14000000FC140000F010F01010FF10FA
:1004A000FF141414FF141010101F00000000F010AF
:1004B000FFFFFFFFFFF0F0F0F0F0FFFFFF00000094
:1004C0000000FFFF0F0F0F0F0F38444438447C2A01
:1004D0002A3E147E02020606027E027E026355490F
:1004E00041633844443C04407E201E2006027E02C4
:1004F0000299A5E7A5991C2A492A1C4C7201724C45
:10050000304A4D4D303048784830BC625A463D3E06
:10051000494949007E0101017E2A2A2A2A2A4444A7
:100520005F444440514A444040444A51400000FF27
:100530000103E080FF000008086B6B0836123624C8
:1005400036060F090F0600001818000000101000F2
:100550003040FF0101001F01011E00191D1712008C
:100560003C3C3C3C0000000000000000002500284E
:10057000002B000404040404040404020202020226
:100580000203030303030301020408102040800157
:1005900002040810200102040810200000000800D6
:1005A000020100000304070000000000000000003A
:1005B000631D11241FBECFEFD8E0DEBFCDBF11E019
:1005C000A0E0B1E0E2E5FFE302C005900D92AA3899
:1005D000B107D9F727E0AAE8B1E001C01D92AE3912
:1005E000B207E1F712E0C9EDD2E004C02197FE01A5
:1005F0000E949C1FC83DD107C9F70E947B1A0C942A
:10060000A71F0C940000CF92DF92EF92FF920F93FE
:100610001F93CF93DF936C017A018B01C0E0D0E090
:10062000CE15DF0581F0D8016D918D01D601ED91D8
:10063000FC910190F081E02DC6010995892B11F004
:100640002196EECF7E01C701DF91CF911F910F91CF
:10065000FF90EF90DF90CF900895FC01538D448D73
:10066000252F30E0842F90E0821B930B541710F05D
:10067000CF96089501970895FC01918D828D98176A
:1006800061F0828DDF01A80FB11D5D968C91928D76
:100690009F5F9F73928F90E008958FEF9FEF089573
:1006A000FC01918D828D981731F0828DE80FF11D3C
:1006B000858D90E008958FEF9FEF0895FC01918D57
:1006C000228D892F90E0805C9F4F821B91098F7350
:1006D0009927089581E592E00E945E0321E0892B2D
:1006E00009F420E0822F0895FC01848DDF01A80F1A
:1006F000B11DA35ABF4F2C91848D90E001968F734A
:100700009927848FA689B7892C93A089B1898C9168
:10071000837080648C93938D848D981306C00288B7
:10072000F389E02D80818F7D80830895EF92FF9281
:100730000F931F93CF93DF93EC0181E0888F9B8D04
:100740008C8D981305C0E889F989808185FD26C0C4
:10075000F62E0B8D10E00F5F1F4F0F731127E02E49
:100760008C8DE8120CC00FB607FCFACFE889F98926
:10077000808185FFF5CFCE010E947403F1CF8B8D70
:10078000FE01E80FF11DE35AFF4FF0829FB7F89486
:100790000B8FEA89FB89808180620AC09FB7F89439
:1007A000EE89FF896083E889F9898081837080649C
:1007B00080839FBF81E090E0DF91CF911F910F91E7
:1007C000FF90EF900895CF93DF93EC01888D8823FD
:1007D000C9F0EA89FB89808185FD05C0A889B989AE
:1007E0008C9186FD0FC00FB607FCF5CF808185FF89
:1007F000F2CFA889B9898C9185FFEDCFCE010E94F7
:100800007403E7CFDF91CF91089580E090E0892BCA
:1008100029F00E946A0381110C940000089585ED6F
:100820008093BC008091BC0084FDFCCF10927007C7
:10083000089540912802262F30E0240F311D2132E7
:100840003105DCF4209170072430C9F4FC0180E00C
:1008500090E0861758F4309128022191DC01A85FBE
:10086000BD4FA30FB11D2C930196F3CF80912802A9
:10087000680F6093280280E0089581E0089582E087
:100880000895089508950895E091500280914F02CF
:10089000E81730F4F0E0E851FE4F808190E00895D1
:1008A0008FEF9FEF08959091500280914F0298171B
:1008B00050F4E92FF0E0E851FE4F208130E09F5FD7
:1008C0009093500202C02FEF3FEFC901089580912D
:1008D0004F0290E020915002821B91090895CF921F
:1008E000DF92EF92FF920F931F93CF93DF937C01E0
:1008F000CB018A0120917107222389F0EB016B0162
:10090000C40ED51ECC15DD0569F06991D701ED91B6
:10091000FC910190F081E02DC7010995F3CF642F80
:100920000E941904C801DF91CF911F910F91FF9090
:10093000EF90DF90CF900895CF93DF931F92CDB7C4
:10094000DEB76983209171072223D1F020919407AB
:10095000203240F021E030E0FC013383228380E04C
:1009600090E015C080917207E82FF0E0ED58F84F45
:10097000998190838F5F809372078093940705C05D
:1009800061E0CE0101960E94190481E090E00F9091
:10099000DF91CF910895DC01FB0111821082158255
:1009A000148214968D919C91159793838283169649
:1009B0008D919C9117979783868310861186128656
:1009C00013861486158616861786108A118A128A4F
:1009D000138A148A158A168A178A118E108E138E1E
:1009E000128E158E148E168E178E10A211A212A2C0
:1009F00013A214A215A211AA10AA1896ED91FC91A7
:100A0000199717A216A281E090E0A0E0B0E080A7BD
:100A100091A7A2A7B3A714A615A616A617A6089570
:100A2000CF92DF92EF92FF920F931F93CF93DF93BA
:100A3000DA0111961C921E9280EC91E013969C9321
:100A40008E93129788E991E015969C938E93149754
:100A500085E016968C93169788E017968C931797D7
:100A60006D3011F06A3029F481E01D968C931D974A
:100A700003C01D961C921D9780EE860F8F3508F0DF
:100A800053C081E01C968C931C9705E0609FB001D9
:100A9000112418961D921D921D921C921B9780E0A6
:100AA00090E040E050E06A5F7F4F182FFB01E80FB5
:100AB000F91FE859FF4FE49120E030E0F0E0EF014A
:100AC000022E02C0D595C7950A94E2F7C0FF21C057
:100AD0001896CD90DD90ED90FC901B97CFEFCC1A3F
:100AE000DC0AEC0AFC0A1896CD92DD92ED92FC929B
:100AF0001B971296CD91DC911397C40FD51F1883C5
:100B00001496CD91DC911597C40FD51F28834F5FA4
:100B10005F4F2F5F3F4F2830310589F601968530B2
:100B2000910509F0C2CF02C01C961C92DF91CF91B3
:100B30001F910F91FF90EF90DF90CF9008952F922B
:100B40003F924F925F926F927F928F929F92AF925D
:100B5000BF92CF92DF92EF92FF920F931F93CF93AA
:100B6000DF93CDB7DEB760970FB6F894DEBF0FBE48
:100B7000CDBF3C017A8369835C834B833C872B87A1
:100B80001E870D87F88AEF86212C312C2101D60192
:100B9000C501AA27BB278F839887A987BA87882092
:100BA00009F452C0AB81BC812D853E852A173B07D5
:100BB00008F48EC089809A808B859C85881599055C
:100BC000B0F1D301ED91FC910084F185E02DA201FB
:100BD00091016F857889C30109959E838D83C20138
:100BE000B1016F5F7F4F8F4F9F4F2F8138854985B0
:100BF0005A850E947D1F1B012C0144245524D301DA
:100C0000ED91FC910484F585E02DA12CB12C6501BA
:100C1000E12CF12C8701E3942D813E814B815C8195
:100C2000B401C3010995BFEF8B1A9B0AC5CF2B8175
:100C30003C812F5F3F4F3C832B83B4CF29813A8186
:100C40002F5F3F4F3A83298389819A81AB85BC8589
:100C5000A817B907E8F18B809C802D853E85281563
:100C6000390560F3D301ED91FC910084F185E02D0D
:100C7000A20191016F857889C30109959E838D83B7
:100C8000C201B1016F5F7F4F8F4F9F4F2F8138851A
:100C900049855A850E947D1F1B012C01442455243F
:100CA000D301ED91FC910484F585E02DA12CB12CAC
:100CB0006501E12CF12C8701E3942D813E81A40193
:100CC00069817A81C3010995BFEF8B1A9B0AC5CF51
:100CD00060960FB6F894DEBF0FBECDBFDF91CF9107
:100CE0001F910F91FF90EF90DF90CF90BF90AF904A
:100CF0009F908F907F906F905F904F903F902F903C
:100D000008950895089580E090E008950E94A21F3C
:100D10004F925F926F927F928F929F92AF92BF920B
:100D2000CF92DF92EF92FF920F931F93CF93DF93B7
:100D30006C01DC01ED91FC910688F789E02D4AE811
:100D400051E00995F601C085D1856A817B81888152
:100D50009981681B790B80919001681B710980E073
:100D600090E00E94901E288539854A855B850E9407
:100D7000551E87FF2FC0009191018C849D84AE8405
:100D8000BF846E817F818C819D81681B790B10E00F
:100D9000601B710B80E090E00E94901EA501940101
:100DA0000E94551E87FD8BC088899989AA89BB89B5
:100DB00088879987AA87BB87B801110F880B990B81
:100DC0000E94921EA50194010E94E91D6C877D87F7
:100DD0008E879F8780919601882309F462C0812CB9
:100DE000912C54018091920190919301A0919401D2
:100DF000B0919501F601C085D18588169906AA069D
:100E0000BB06A8F5E0918E01F0918F01E80DF91D68
:100E1000608170E080E090E00E94921E2C853D850C
:100E20004E855F850E94E91D2B013C01E0918C01FC
:100E3000F0918D01E80DF91D608170E080E090E097
:100E40000E94921E288539854A855B850E94E91D8E
:100E5000AB01BC01E12CF12C93018201C6010E947F
:100E6000B40EFFEF8F1A9F0AAF0ABF0ABBCF609183
:100E7000900170E06F5F7F4F072E000C880B990B7D
:100E80000E94921E9B01AC01688579858A859B85AD
:100E90000E94E91D688779878A879B8781E090E0B7
:100EA00002C080E090E0F601A085B1852EE0EAE87E
:100EB000F1E0589601900D922A95E1F702C080E08A
:100EC00090E0DF91CF911F910F91FF90EF90DF9015
:100ED000CF90BF90AF909F908F907F906F905F90DA
:100EE0004F9008958F929F92AF92BF92CF92DF92D0
:100EF000EF92FF920F931F93CF93DF93CDB7DEB79F
:100F0000C114D104E104F10429F0EF85EF930E94AC
:100F1000D3170F90DF91CF911F910F91FF90EF901A
:100F2000DF90CF90BF90AF909F908F9008958F9259
:100F30009F92AF92BF92CF92DF92EF92FF920F9368
:100F40001F93CF93DF93CDB7DEB7C114D104E10473
:100F5000F10429F0EF85EF930E940F160F90DF91B7
:100F6000CF911F910F91FF90EF90DF90CF90BF90A6
:100F7000AF909F908F9008958F929F92AF92BF9263
:100F8000CF92DF92EF92FF920F931F93CF93DF9355
:100F9000962EC72E7901FC01EF5EFB4F20812223A4
:100FA00019F03DE3D32E02C02CE3D22E442309F4E2
:100FB0005AC0A12CB12C8C010C5F1B4FEC01CE5EF2
:100FC000DB4F88248394D8016D917C91C7010E94E6
:100FD000471FA616B70610F580927107D0929307A7
:100FE000109272071092940760E470E088819981F2
:100FF0000E94AD0E88819981F80140815181DC0108
:10100000ED91FC910280F381E02D692D7C2D0995F5
:101010000E947717BFEFAB1ABB0AD5CF81E0809350
:101020007107D0929307109272071092940760E4B0
:1010300070E0888199810E94AD0E0990D881C02D01
:10104000F80160817181C7010E94471FE881F98121
:101050000280F381E02DAC01692D7C2DCE01099534
:101060000E94771729C0092D1C2DE00EF11ECC24FB
:10107000C394EC01CE5EDB4FE016F106E9F0C092BE
:101080007107D0929307109272071092940760E054
:1010900070E0888199810E94AD0E88819981D80184
:1010A0006D918D01DC01ED91FC910190F081E02DBD
:1010B00009950E947717E0CF80E090E0DF91CF9113
:1010C0001F910F91FF90EF90DF90CF90BF90AF9066
:1010D0009F908F9008951F920F920FB60F92112438
:1010E0002F933F934F935F936F937F938F939F9330
:1010F000AF93BF93EF93FF9381E592E00E94740357
:10110000FF91EF91BF91AF919F918F917F916F91DF
:101110005F914F913F912F910F900FBE0F901F90B5
:1011200018951F920F920FB60F9211242F938F9341
:101130009F93EF93FF93E0916102F09162028081AF
:10114000E0916702F091680282FD12C09081809167
:101150006A028F5F8F7320916B02821751F0E091CA
:101160006A02F0E0EF5AFD4F958F80936A0201C04A
:101170008081FF91EF919F918F912F910F900FBEE2
:101180000F901F9018951F920F920FB60F92112477
:101190002F933F934F935F936F937F938F939F937F
:1011A000AF93BF93EF93FF938091B900887F803610
:1011B00009F49CC068F5883209F45BC090F4803172
:1011C00009F454C038F4882309F4F6C0883009F4CF
:1011D0004DC0F6C0883109F44CC0803209F45DC0BE
:1011E000EFC0803409F468C048F4803309F455C076
:1011F000883309F0E5C080936E07D8C0803509F4C4
:101200004FC0883509F45DC0883409F0D9C0D6C014
:10121000883909F4C7C0A8F4883709F467C038F4DE
:10122000883609F463C0803709F460C0C9C08838C3
:1012300009F4B8C0803909F45FC0803809F0C0C033
:101240005BC0803B09F486C038F4803A09F466C07C
:10125000883A09F47FC0B4C0803C09F4A7C0883C38
:1012600009F4A4C0883B09F48AC0AAC080914B0746
:1012700010C090916D0780916C07981770F5E09100
:101280006D0781E08E0F80936D07F0E0E45BF84F0F
:1012900080818093BB0085EC86C080936E078EC0F2
:1012A000E0916D0781E08E0F80936D078091BB0008
:1012B000F0E0E45BF84F808390916D0780916C07BC
:1012C0006EC0E0916D0781E08E0F80936D07809175
:1012D000BB00F0E0E45BF84F808380916F078111E1
:1012E0006DC081E080934A0784EA61C083E0809307
:1012F000700710924A02CFCF80914A02803208F0E4
:1013000051C0E0914A0281E08E0F80934A028091A1
:10131000BB00F0E0E65DFD4F8083BDCF85EC8093A0
:10132000BC001092700780914A02803230F4E09144
:101330004A02F0E0E65DFD4F108260914A0270E0E3
:10134000E0914B02F0914C028AE292E009951092F2
:101350004A0236C084E080937007109229021092EE
:101360002802E0914D02F0914E02099580912802E9
:10137000811105C081E08093280210920802E0915B
:10138000290281E08E0F80932902F0E0E85FFD4F93
:1013900080818093BB009091290280912802981748
:1013A00008F479CF85E88093BC000AC085EC80936F
:1013B000BC001092700704C010926E070E940F04C8
:1013C000FF91EF91BF91AF919F918F917F916F911D
:1013D0005F914F913F912F910F900FBE0F901F90F3
:1013E00018958F929F92AF92BF92CF92DF92EF9219
:1013F000FF920F931F93CF93DF936115710509F44B
:1014000091C0EA016B017C01FC0100851185F801A6
:101410002223E9F16481758180E090E00E94901EB2
:10142000F60120813181428153810E94E91D4B01E7
:101430005C0120E030E0A9010E94551E87FF04C036
:101440001982188291E007C0C501B4010E94611E93
:101450007983688390E0F80126813781488159813A
:101460002417350720F43983288381E001C080E008
:10147000F80124813581488159814217530718F4B6
:101480003983288391E0F701268137813CC0608150
:10149000718180E090E00E94901EF60120813181F0
:1014A000428153810E94E91D4B015C0120E030E044
:1014B000A9010E94551E87FF04C01982188291E07D
:1014C00007C0C501B4010E94611E7983688390E062
:1014D000F80122813381488159812417350720F48E
:1014E0003983288381E001C080E0F80120813181C7
:1014F000488159814217530718F43983288391E0B2
:10150000F70124813581488159814217530728F01A
:10151000215031093983288308C0811106C0892FE1
:1015200090E005C083E090E002C082E090E0DF91AF
:10153000CF911F910F91FF90EF90DF90CF90BF90D0
:10154000AF909F908F9008950F931F93CF93DF9349
:10155000FB01EA0137FD0DC0C901B801640F751F19
:10156000811D911D9F0140E050E00E947D1FCB0135
:1015700015C088279927DC01801B910BA20BB30BA8
:101580000E94471FC817D90710F09E0104C0BE0172
:101590006E0F7F1F9B01281B390BC901DF91CF9173
:1015A0001F910F9108952F923F924F925F926F92E9
:1015B0007F928F929F92AF92BF92CF92DF92EF92E3
:1015C000FF920F931F93CF93DF93CDB7DEB768974A
:1015D0000FB6F894DEBF0FBECDBF1C017E876D87AE
:1015E0005E834D83388F2F8B18870F83DA86C986E9
:1015F00089829A82AB82BC82B9A829813A814B81C7
:101600005C81211531054105510509F42FC244279C
:1016100055272F87388B498B5A8B8DA59EA5AFA553
:10162000B8A9BC01CD01882799270E947D1F6B8B2B
:101630007C8B8D8B9E8B2B013C01662477248F89BC
:10164000988D4D855E85841B950BDC011196BC87BA
:10165000AB87D101ED91FC91EE2009F4E7C0008445
:10166000F185E02DA3019201B601C10109952AA9D6
:10167000222309F48AC0BB2009F444C02D813E8195
:101680004F8158854217530708F4F0C1D101ED91FD
:10169000FC91B1E0BF930684F785E02D812C912C5D
:1016A0005401C12CD12C7601C3948C012B853C852F
:1016B0004F8158856F89788DC1010995C301B201A9
:1016C0006F5F7F4F8F4F9F4F2F85388949895A8988
:1016D0000E947D1F2B013C0166247724D101ED91EE
:1016E000FC910084F185E02DA301920169857A8542
:1016F000C10109952F8138852150310938872F8301
:101700000F90BCCF4F815885AD81BE814A175B07D2
:1017100008F4ACC1D101ED91FC911F920684F785CC
:10172000E02D812C912C5401C12CD12C7601C39435
:101730008C012B853C854D815E816D857E85C10147
:101740000995C301B2016F5F7F4F8F4F9F4F2F8568
:10175000388949895A890E947D1F2B013C016624E2
:101760007724D101ED91FC910084F185E02DA30156
:10177000920169857A85C10109952D813E812F5F8E
:101780003F4F3E832D830F90BDCFBB2041F14D8154
:101790005E818F8198858417950708F467C1D10110
:1017A000ED91FC91B1E0BF930684F785E02D5301E4
:1017B0004201C980DA80EB80FC8009851A852B857F
:1017C0003C854F8158856F89788DC10109952F819E
:1017D00038852150310938872F830F90D8CF4F811A
:1017E00058858D819E814817590708F43FC1D10162
:1017F000ED91FC911F920684F785E02D5301420183
:10180000C980DA80EB80FC8009851A852B853C85B0
:101810004D815E816D857E85C10109952D813E8159
:101820002F5F3F4F3E832D830F90D9CF8F819885B7
:101830004D815E81841B950BDC011197B88BAF87BE
:10184000BB2009F486C04F5F5F4F1F920088F1896B
:10185000E02D53014201C980DA80EB80FC800985CC
:101860001A852F8538896D857E85C10109952F855B
:1018700038892901612C712C930182014B895C8983
:1018800069817A81C1010E94A40A9C8B8B8B4C01D7
:10189000A12CB12CD101ED91FC911F920684F7850A
:1018A000E02DC980DA80EB80FC8009851A852B85C4
:1018B0003C854F8158856D857E85C10109954B8595
:1018C0005C858A0120E030E04B895C8969817A81FE
:1018D000C1010E94A40A9E878D874C01A12CB12CC6
:1018E0004F81588541505109D101ED91FC91B1E0F2
:1018F000BF930088F189E02DC980DA80EB80FC80FD
:1019000009851A852F8538896F89788DC1010995D8
:10191000930182014D855E8569817A81C1010E94B2
:10192000A40A4C01A12CB12CD101ED91FC91B1E0A4
:10193000BF930684F785E02DC980DA80EB80FC80B8
:1019400009851A852B853C854D815E816F89788D4F
:1019500087C01F920684F785E02D53014201C9809C
:10196000DA80EB80FC8009851A852B853C854D81CA
:101970005E816D857E85C10109952B853C85290198
:10198000612C712C930182014B895C8969817A8178
:10199000C1010E94A40A9C8B8B8B4C01A12CB12C01
:1019A0004D815E814F5F5F4FD101ED91FC911F92A0
:1019B0000088F189E02DC980DA80EB80FC80098500
:1019C0001A852F8538896F89788DC10109954F85D2
:1019D00058898A0120E030E04B895C8969817A81ED
:1019E000C1010E94A40A9E838D834C01A12CB12CBD
:1019F000D101ED91FC91B1E0BF930684F785E02D14
:101A0000C980DA80EB80FC8009851A852B853C85AE
:101A10004F8158856F89788DC101099593018201A5
:101A20004D815E8169817A81C1010E94A40A4C01C5
:101A3000A12CB12C4F81588541505109D101ED9114
:101A4000FC91B1E0BF930088F189E02DC980DA8074
:101A5000EB80FC8009851A852F8538896D857E8508
:101A6000C10109950F900F900F900F9068960FB6D7
:101A7000F894DEBF0FBECDBFDF91CF911F910F91C4
:101A8000FF90EF90DF90CF90BF90AF909F908F909E
:101A90007F906F905F904F903F902F9008954F925E
:101AA0005F926F927F928F929F92AF92BF92CF92EE
:101AB000DF92EF92FF920F931F93CF93DF9300D0AB
:101AC0001F92CDB7DEB78C013C0129EF621A2BEFD4
:101AD000720AD3018D919C915801B5EFAB1ABBEFFF
:101AE000BB0AF501208131812C015694542C4424E9
:101AF00057944794420E531E6801F7EFCF1AFBEF3D
:101B0000DF0AD601ED90FC90E81AF90AF694FE2C53
:101B1000EE24F794E7944801B3EF8B1ABBEF9B0ACE
:101B2000F401808191810196821B930BE80EF91ECE
:101B3000B70180E090E04AE00E94EF160E94E716AD
:101B4000C8010E944017D4018C91F501908121E2D7
:101B500029839A838B83D801ED91FC910280F381D4
:101B6000E02DC8010995D801ED91FC910190F0811B
:101B7000E02D23E030E040E0BE016F5F7F4FC80101
:101B80000995D801ED91FC910480F581E02DC80103
:101B90000995F6018081D3019C9122E229839770F7
:101BA0009A8387708B83D801ED91FC910280F38139
:101BB000E02DC8010995D801ED91FC910190F081CB
:101BC000E02D23E030E040E0BE016F5F7F4FC801B1
:101BD0000995D801ED91FC910480F581E02DC801B3
:101BE0000995B8016E5F7F4F640D751DD801ED91A9
:101BF000FC910190F081E02D970141E0C801099529
:101C0000F801EA5FFB4F10820F900F900F90DF9169
:101C1000CF911F910F91FF90EF90DF90CF90BF90E9
:101C2000AF909F908F907F906F905F904F900895AE
:101C30008F929F92AF92BF92CF92DF92EF92FF92DC
:101C40000F931F93CF93DF93CDB7DEB762970FB695
:101C5000F894DEBF0FBECDBF6B877C878D879E87D4
:101C60002F87388B498B5A8BA80197016F8578890C
:101C700089899A89882019F00E94E81D02C00E9473
:101C8000E91D69837A838B839C8321E0AE01475FE2
:101C90005F4FBE01615F7F4F8EE097E00E94F109C8
:101CA0007C0121E0AE01495F5F4FBE016F5F7F4F56
:101CB0008EE097E00E94F1098C0120E0AE014B5FBD
:101CC0005F4FBE01655F7F4F8EE097E00E94F10994
:101CD000892B81F581E0E816F10421F4013011052A
:101CE00041F428C082E0E816F10419F4023011052D
:101CF00009F149855A858F8198858417950728F0C1
:101D000001969C01241B350B05C09A012F5F3F4FA4
:101D1000281B390B6D817E818F9245015601C12CA4
:101D2000D12C7601C39400E011E08EE097E00E9490
:101D3000D3170F9062960FB6F894DEBF0FBECDBFDB
:101D4000DF91CF911F910F91FF90EF90DF90CF9097
:101D5000BF90AF909F908F900895DC01ED91FC9122
:101D60000190F081E02D09946F927F928F929F9263
:101D7000AF92BF92CF92DF92EF92FF920F931F9399
:101D8000CF93DF93CDB7DEB72C970FB6F894DEBFB5
:101D90000FBECDBF4C014D835E836F83788709876B
:101DA0001A872B873C87370120E0AE014D5F5F4FDC
:101DB000BE016B5F7F4F0E94F1098C0121E0AE01F3
:101DC0004F5F5F4FBE01675F7F4FC4010E94F10903
:101DD000012B79F5892B69F549815A816B817C81C9
:101DE000D4018D919C911197EF28A1F41896ED9153
:101DF000FC911997A4A4B5A4C6A4D7A4E0A4F1A407
:101E000002A513A526A137A1DC011C96ED91FC913A
:101E10001D970DC0DC011C96ED91FC911D97A12C26
:101E2000B12C6501E12CF12C8701E3949301C401ED
:101E300009952C960FB6F894DEBF0FBECDBFDF918B
:101E4000CF911F910F91FF90EF90DF90CF90BF90B7
:101E5000AF909F908F907F906F9008952F923F92B8
:101E60004F925F926F927F928F929F92AF92BF92AA
:101E7000CF92DF92EF92FF920F931F93CF93DF9356
:101E8000CDB7DEB76A970FB6F894DEBF0FBECDBFF1
:101E90003C0149875A876B877C870D871E872F8770
:101EA000388BC98ADA8AEB8AFC8A8D8A9E8AAF8A45
:101EB000B88E49A85AA82BA9298F2CA92A8F842E1D
:101EC000952E062F172F9601A701B401C8010E9475
:101ED000421F181664F4C601D70189879A87AB8719
:101EE000BC87C401D801898B9A8BAB8BBC8BCD840A
:101EF000DE84EF84F8888D889E88AF88B88CA50131
:101F00009401C701B6010E94421F181644F48D8641
:101F10009E86AF86B88ACD8ADE8AEF8AF88E21E067
:101F2000AE014D5F5F4FBE01635F7F4FC3010E94F3
:101F3000F1094C0121E0AE014F5F5F4FBE016B5EC6
:101F40007F4FC3010E94F1097C0120E0AE01495F8F
:101F50005F4FBE01675F7F4FC3010E94F1098C0193
:101F600020E0AE014B5F5F4FBE016F5E7F4FC3014C
:101F70000E94F109A1E08A16910421F4EA94EF2865
:101F800051F46BC0E2E08E16910429F4F2E0EF16F2
:101F9000F10409F462C00130110519F4019739F414
:101FA0005CC00230110519F4029709F456C009818A
:101FB0001A812D813E814B815C816F817885D301AF
:101FC000ED90FC901197EFA5F8A9EF2B39F5189635
:101FD0000D90BC91A02D98968D909D90AD90BC9049
:101FE0009B979696CD90DC909797FDA9FF938EA92D
:101FF0008F939F968C919F978F939E968C919E978F
:102000008F939D968C919D978F939C968C918F9397
:10201000D7015296ED91FC91539715C0BEA9BF937D
:10202000EDA9EF93FA8DFF93898D8F935F924F9275
:10203000D7015296ED91FC915397812C912C54012C
:102040008394CFA4D8A8EE24E394C30109950F90FC
:102050000F900F900F900F900F906A960FB6F89414
:10206000DEBF0FBECDBFDF91CF911F910F91FF90CB
:10207000EF90DF90CF90BF90AF909F908F907F9028
:102080006F905F904F903F902F9008952F923F92C6
:102090004F925F926F927F928F929F92AF92BF9278
:1020A000CF92DF92EF92FF920F931F93CF93DF9324
:1020B000CDB7DEB7A7970FB6F894DEBF0FBECDBF82
:1020C0001C0149875A876B877C870D871E872F875E
:1020D000388BCD82DE82EF82F886AEA2BFA2C70126
:1020E000B6010E94611E698F20E030E0A9016D8574
:1020F0007E858F8598890E94E91D4B015C01298DA1
:10210000622F70E080E090E00E94921E2B013C0163
:1021100029853A854B855C850E94E91D6A8F7B8FF6
:102120008C8F9D8FEEA0FFA095018401AB01BC01B7
:10213000C1010E94B40E20E030E0A9016D817E81D2
:102140008F8198850E94421F18160CF083C0A3014E
:10215000920169857A858B859C850E94E81D69833B
:102160007A838B839C83EEA0FFA095018401AB0151
:10217000BC01C1010E94B40EA30192016D857E8550
:102180008F8598890E94E81D6E8F7F8F88A399A301
:1021900020E030E0A90169857A858B859C850E94C5
:1021A000E91D4B015C01EEA0FFA00E8D1F8D28A143
:1021B00039A1AB01BC01C1010E94B40EA30192017F
:1021C0006D857E858F8598890E94E91D2B013C01D4
:1021D000EEA0FFA08B019C01B501A401C1010E94EA
:1021E000B40E1F921F921F921F921F921F923FA127
:1021F0003F938EA18F938D849E84AF84B888CA8CC0
:10220000DB8CEC8CFD8C9501840149815A816B81BA
:102210007C81C1010E942E0F1F921F921F921F925C
:102220001F921F929FA19F932EA12F9353014201B2
:10223000C984DA84EB84FC840E8D1F8D28A139A11A
:10224000B701A601C1010E942E0F0FB6F894DEBFA0
:102250000FBECDBF2D813E814F81588560E070E07B
:1022600080E89FE30E94E81D0E945A1E7B8F6A8FC0
:102270001D82998D2D81291708F078C12F5F2D833C
:10228000622F70E08A8D9B8D1816190644F0CB01E1
:10229000880F991F2A8D3B8D820F931F10C0398D97
:1022A0003150398FCB01880F991F2A8D3B8D820FBA
:1022B000931F298D32E0239F8019910911249C01DD
:1022C0002F5F3F4F3B8F2A8F3D81898D831708F405
:1022D0004DC1072E000C880B990B0E94921E69833A
:1022E0007A838B839C839B01AC016D857E858F8572
:1022F00098890E94E91D698B7A8B8B8B9C8B298D29
:10230000622F70E080E090E00E94921E6E8F7F8FBF
:1023100088A399A39B01AC0169857A858B859C85EF
:102320000E94E91D6D8B7E8B8F8B988FEEA0FFA096
:1023300009891A892B893C89AB01BC01C1010E9422
:10234000B40E2E8D3F8D48A159A169857A858B8564
:102350009C850E94E81D6AA37BA38CA39DA3EEA08D
:10236000FFA009891A892B893C89AB01BC01C101F5
:102370000E94B40E29813A814B815C816D857E85F6
:102380008F8598890E94E81D2B013C01EEA0FFA0DB
:102390008B019C014D895E896F89788DC1010E94F6
:1023A000B40EEEA0FFA0930182014AA15BA16CA133
:1023B0007DA1C1010E94B40E1F921F921F921F9215
:1023C0001F921F923FA13F938EA18F9389889A8875
:1023D000AB88BC88CD88DE88EF88F88C95018401B5
:1023E0004AA15BA16CA17DA1C1010E942E0F1F9289
:1023F0001F921F921F921F921F929FA19F932EA127
:102400002F9353014201CD88DE88EF88F88C930129
:1024100082014AA15BA16CA17DA1C1010E942E0F86
:102420000FB6F894DEBF0FBECDBF9D81298D9217E8
:1024300009F41FCF2E8D3F8D48A159A16D857E8552
:102440008F8598890E94E91D698B7A8B8B8B9C8B79
:1024500029813A814B815C8169857A858B859C8550
:102460000E94E91D6D8B7E8B8F8B988FEEA0FFA055
:1024700009891A892B893C89AB01BC01C1010E94E1
:10248000B40E29813A814B815C8169857A858B857F
:102490009C850E94E81D69837A838B839C83EEA0D0
:1024A000FFA009891A892B893C89AB01BC01C101B4
:1024B0000E94B40E2E8D3F8D48A159A16D857E8559
:1024C0008F8598890E94E81D2B013C01EEA0FFA09A
:1024D0008B019C014D895E896F89788DC1010E94B5
:1024E000B40EEEA0FFA09301820149815A816B8155
:1024F0007C81C1010E94B40E1F921F921F921F92F5
:102500001F921F923FA13F938EA18F9389889A8833
:10251000AB88BC88CD88DE88EF88F88C9501840173
:1025200049815A816B817C81C1010E942E0F1F92CB
:102530001F921F921F921F921F929FA19F932EA1E5
:102540002F9353014201CD88DE88EF88F88C9301E8
:10255000820149815A816B817C81C1010E942E0FC9
:102560000FB6F894DEBF0FBECDBF83CEA7960FB6D1
:10257000F894DEBF0FBECDBFDF91CF911F910F91B9
:10258000FF90EF90DF90CF90BF90AF909F908F9093
:102590007F906F905F904F903F902F9008952F9273
:1025A0003F924F925F926F927F928F92AF92BF92C3
:1025B000CF92DF92EF92FF920F931F93CF93DF930F
:1025C000CDB7DEB7A2970FB6F894DEBF0FBECDBF72
:1025D0006D837E838F83988729013A01E982FA828D
:1025E0000B831C83A98ABA8ACB8ADC8AC601B5010F
:1025F0000E94E81D0E94611E69877A878B879C87ED
:102600002D813E814F815885C801B7010E94E81D88
:102610000E945A1E97FF09C090958095709561950C
:102620007F4F8F4F9F4F1FEF01C011E09B01AC0107
:10263000220F331F441F551F2D873E874F87588B0E
:1026400089859A85281B390B4109510929833A83C9
:102650004B835C836D817E818F8198850E94611E92
:102660007E836D83C301B2010E94611E1B018985B7
:102670009A85880F991F9C0140E050E0298F3A8F7E
:102680004B8F5C8F612C712C412F110F550B5AA36E
:1026900049A3B10180E090E00E94901E9B01AC0133
:1026A00069897A898B899C890E94421F18160CF0CF
:1026B0007CC05FEF651A750A89819A81AB81BC8104
:1026C000181619061A061B060CF05BC0930140E0B1
:1026D00050E02D8B3E8B4F8B588FCA01B9010E9461
:1026E000901E6D8F7E8F8F8F98A3B1016F5F7F4F8C
:1026F0006619770980E090E00E94901E2B013C0152
:102700004D815E81BA0180E090E00E94901E812C94
:10271000AEA8BFA8C8ACD9ACED8CFE8C0F8D18A1AB
:10272000A30192010E94180E0D891E892F89388DF0
:102730004EA95FA961E070E08EE097E00E94A40AD4
:102740009C0140E050E02EAB3FAB48AF59AF4D810C
:102750005E8189A19AA1480F591F5E834D8329810B
:102760003A814B815C81898D9A8DAB8DBC8D281B04
:10277000390B4A0B5B0B29833A834B835C83612CB7
:10278000712C29813A814B815C818D859E85AF8535
:10279000B889280F391F4A1F5B1F29833A834B834F
:1027A0005C839FEF291A390A74CFB30180E090E06F
:1027B0000E94901E69837A838B839C83B101661982
:1027C000770980E090E00E94901E2B013C01AD81D2
:1027D000BE81BD0180E090E00E94901E812CAEA8D9
:1027E000BFA8C8ACD9ACE980FA800B811C81A301D9
:1027F00092010E94180E29853A85B90180E090E087
:102800000E94901EA2960FB6F894DEBF0FBECDBFF9
:10281000DF91CF911F910F91FF90EF90DF90CF90BC
:10282000BF90AF908F907F906F905F904F903F9050
:102830002F9008958F929F92AF92BF92CF92DF9286
:10284000EF92FF920F931F93CF93DF93CDB7DEB735
:1028500062970FB6F894DEBF0FBECDBF6B877C8743
:102860008D879E872F87388B498B5A8BA8019701BC
:10287000882019F00E94E81D06C06B857C858D8537
:102880009E850E94E91D69837A838B839C8320E067
:10289000AE01475F5F4FBE01655F7F4F8EE097E0FF
:1028A0000E94F1097C0120E0AE01495F5F4FBE014B
:1028B0006F5F7F4F8EE097E00E94F1098C0121E06D
:1028C000AE014B5F5F4FBE01615F7F4F8EE097E0CF
:1028D0000E94F109892B81F581E0E816F10421F4C9
:1028E0000130110541F428C082E0E816F10419F422
:1028F0000230110509F169857A858F8198858617DF
:10290000970728F001969C01261B370B05C09B01F9
:102910002F5F3F4F281B390B4D815E818F92450100
:102920005601C12CD12C7601C39400E011E08EE059
:1029300097E00E940F160F9062960FB6F894DEBFD4
:102940000FBECDBFDF91CF911F910F91FF90EF9000
:10295000DF90CF90BF90AF909F908F9008953FB73A
:10296000F89480919A0790919B07A0919C07B09151
:102970009D0726B5A89B05C02F3F19F00196A11D04
:10298000B11D3FBFBA2FA92F982F8827820F911D05
:10299000A11DB11DBC01CD0142E0660F771F881F4C
:1029A000991F4A95D1F708952F923F924F925F92C7
:1029B0006F927F928F92AF92BF92CF92DF92EF92FF
:1029C000FF920F931F93CF93DF93CDB7DEB7A297FC
:1029D0000FB6F894DEBF0FBECDBF6D837E838F83AD
:1029E000988729833A834B835C83E98AFA8A0B8B25
:1029F0001C8B9B01AC01C801B7010E94E81D0E941D
:102A0000611E6D877E878F87988B29813A814B81E4
:102A10005C81C601B5010E94E81D0E945A1E97FF05
:102A200009C090958095709561957F4F8F4F9F4F0E
:102A30001FEF01C011E09B01AC01220F331F441FA7
:102A4000551F29873A874B875C8729013A014D85B5
:102A50005E85441A550A6108710869817A818B8103
:102A60009C810E94611E7A8369836D817E818F8142
:102A700098850E94611E1B018D859E85880F991F78
:102A80009C0140E050E02D8B3E8B4F8B588FC12C2A
:102A9000D12C412F110F550B5AA349A3B10180E04E
:102AA00090E00E94901E9B01AC0169897A898B8914
:102AB0009C890E94421F18160CF06CC05FEFC51A6B
:102AC000D50A14141504160417040CF057C0C601D7
:102AD000A0E0B0E08D839E83AF83B887BC01CD01B9
:102AE0000E94901E698F7A8F8B8F9C8FA981BA81EB
:102AF000BD0180E090E00E94901E6D8F7E8F8F8FD1
:102B000098A3B1016F5F7F4F6C197D0980E090E061
:102B10000E94901E812CAEA8BFA8C8ACD9ACE98C8D
:102B2000FA8C0B8D1C8D2D8D3E8D4F8D58A10E94E2
:102B30001A140D811E812F8138854EA95FA961E08D
:102B400070E08EE097E00E94A40A9C0140E050E013
:102B50002EAB3FAB48AF59AF49815A8189A19AA1A9
:102B6000480F591F5A8349832D893E894F89588DB3
:102B7000421A530A640A750AC12CD12C89859A8598
:102B8000AB85BC85480E591E6A1E7B1E9FEF291A15
:102B9000390A84CFB60180E090E00E94901E6987D8
:102BA0007A878B879C87A981BA81BD0180E090E0FC
:102BB0000E94901E2B013C01B1016C197D0980E03F
:102BC00090E00E94901E812CAEA8BFA8C8ACD9ACE2
:102BD000E984FA840B851C85A30192010E941A14D2
:102BE0002D853E85B90180E090E00E94901EA2965E
:102BF0000FB6F894DEBF0FBECDBFDF91CF911F910E
:102C00000F91FF90EF90DF90CF90BF90AF908F909B
:102C10007F906F905F904F903F902F9008952F92EC
:102C20003F924F925F926F927F928F929F92AF925C
:102C3000BF92CF92DF92EF92FF920F931F93CF93A9
:102C4000DF93CDB7DEB72C970FB6F894DEBF0FBE7B
:102C5000CDBF1C013B015C874B8729011A8709877F
:102C6000A7019601442755272D833E834F8358871C
:102C7000C501B401882799270E947D1F9B01AC01E3
:102C80004427552729833A834B835C83D101ED91F7
:102C9000FC910084F185E02DB801C101099529A1BD
:102CA000222309F43FC09301241935092901641432
:102CB000750409F473C0D101ED91FC910484F5858C
:102CC000E02DA12CB12C6501E12CF12C8701E394BE
:102CD0009C014B855C85B301C101099569817A81AD
:102CE0008B819C816F5F7F4F8F4F9F4F2D813E81E6
:102CF0004F8158850E947D1F9B01AC0144275527B9
:102D000029833A834B835C83D101ED91FC9100844C
:102D1000F185E02D69857A85C1010995B1E06B1ACD
:102D20007108C5CF460C571C64147504B9F1D10164
:102D3000ED91FC910484F585E02DA12CB12C650169
:102D4000E12CF12C8701E3949C014B855C85B30158
:102D5000C101099569817A818B819C816F5F7F4F69
:102D60008F4F9F4F2D813E814F8158850E947D1F3F
:102D70009B01AC014427552729833A834B835C830D
:102D8000D101ED91FC910084F185E02D69857A8572
:102D9000C1010995BFEF6B1A7B0AC6CF2C960FB6FF
:102DA000F894DEBF0FBECDBFDF91CF911F910F9181
:102DB000FF90EF90DF90CF90BF90AF909F908F905B
:102DC0007F906F905F904F903F902F90089542E0DA
:102DD00050E067E871E081E592E00C9403038F9284
:102DE0009F92AF92BF920F931F93CF93DF93CDB774
:102DF000DEB7A1970FB6F894DEBF0FBECDBF19A204
:102E0000423008F44AE08E010F5D1F4F842E912C52
:102E1000A12CB12CA50194010E945B1FE62FB901E2
:102E2000CA0101501109EA3014F4E05D01C0E95C07
:102E3000D801EC93232B242B252B61F701151105C9
:102E400071F0F80101900020E9F73197AF01401BC4
:102E5000510BB80181E592E00E94030302C080E0BB
:102E600090E0A1960FB6F894DEBF0FBECDBFDF9104
:102E7000CF911F910F91BF90AF909F908F90089529
:102E8000EF92FF920F931F93CF93DF9300D0CDB7B4
:102E9000DEB78C011A82198280E28983D801ED9114
:102EA000FC910280F381E02DC8010995D801ED91D4
:102EB000FC910190F081E02D22E030E040E0BE0185
:102EC0006F5F7F4FC80109957C01D801ED91FC919E
:102ED0000480F581E02DC8010995C7010F900F907E
:102EE000DF91CF911F910F91FF90EF900895309156
:102EF0009407313208F04BC0809170078111FCCFEC
:102F00009091930722E02093700721E020936F07B0
:102F10002FEF20936E0710926D0730936C07E3E755
:102F2000F7E0ACE4B7E020E0321721F041914D9397
:102F30002F5FFACF10924B0720914B07990F922BDE
:102F400090934B0790914A07913061F410924A0791
:102F500090914B079093BB009091BC0093FDF8CFEC
:102F600095EC01C095EE9093BC0090917007923063
:102F7000E1F390916E079F3F79F080916E07803268
:102F800041F080916E07803331F084E005C081E02C
:102F900003C082E001C083E0109272071092940790
:102FA0001092710708952F923F924F925F926F9205
:102FB0007F928F929F92AF92BF92CF92DF92EF92C9
:102FC000FF920F931F93CF93DF93CDB7DEB72C976C
:102FD0000FB6F894DEBF0FBECDBF1C017C876B8798
:102FE0003A0129011A870987A70196014427552725
:102FF0002D833E834F835887C501B40188279927C5
:103000000E947D1F9B01AC014427552729833A83E9
:103010004B835C83D101ED91FC910084F185E02D1F
:10302000B801C101099529A1222309F43FC09301E8
:103030002419350929016414750409F473C0D101F8
:10304000ED91FC910484F585E02DA12CB12C650156
:10305000E12CF12C8701E3949C01A3016B857C8515
:10306000C101099569817A818B819C816F5F7F4F56
:103070008F4F9F4F2D813E814F8158850E947D1F2C
:103080009B01AC014427552729833A834B835C83FA
:10309000D101ED91FC910084F185E02D69857A855F
:1030A000C1010995B1E06B1A7108C5CF460C571CD8
:1030B00064147504B9F1D101ED91FC910484F58596
:1030C000E02DA12CB12C6501E12CF12C8701E394BA
:1030D0009C01A3016B857C85C101099569817A8179
:1030E0008B819C816F5F7F4F8F4F9F4F2D813E81E2
:1030F0004F8158850E947D1F9B01AC0144275527B5
:1031000029833A834B835C83D101ED91FC91008448
:10311000F185E02D69857A85C1010995BFEF6B1AAC
:103120007B0AC6CF2C960FB6F894DEBF0FBECDBF7C
:10313000DF91CF911F910F91FF90EF90DF90CF9093
:10314000BF90AF909F908F907F906F905F904F90C7
:103150003F902F90089590E0FC01E556FA4F24919E
:10316000FC01E957FA4F3491FC01ED58FA4FE49114
:10317000EE2309F43CC0222339F1233091F038F4D6
:103180002130A9F0223001F584B58F7D12C027309F
:1031900091F02830A1F02430B9F4809180008F7D27
:1031A00003C0809180008F77809380000DC084B52C
:1031B0008F7784BD09C08091B0008F7703C0809164
:1031C000B0008F7D8093B000F0E0EE0FFF1FE75955
:1031D000FA4FA591B4919FB7F894611104C08C91F6
:1031E0003095382302C0EC913E2B3C939FBF08954D
:1031F0008F929F92AF92BF92CF92DF92EF92FF9207
:103200006B017C010E94AF144B015C01C114D1041D
:10321000E104F104F1F00E94AF14DC01CB01881944
:103220009909AA09BB09883E9340A105B10570F32D
:1032300021E0C21AD108E108F10888EE880E83E087
:10324000981EA11CB11CC114D104E104F10419F7AA
:10325000DDCFFF90EF90DF90CF90BF90AF909F9029
:103260008F9008951F920F920FB60F9211242F93F3
:103270003F938F939F93AF93BF93809196079091C5
:103280009707A0919807B09199073091950723E08F
:10329000230F2D3720F40196A11DB11D05C026E88E
:1032A000230F0296A11DB11D2093950780939607C9
:1032B00090939707A0939807B093990780919A07E6
:1032C00090919B07A0919C07B0919D070196A11D2D
:1032D000B11D80939A0790939B07A0939C07B0938E
:1032E0009D07BF91AF919F918F913F912F910F902B
:1032F0000FBE0F901F9018950895DA01C90123E0C1
:10330000B695A795979587952A95D1F7860F971F1C
:1033100008954F925F926F927F928F929F92AF9299
:10332000BF92CF92DF92EF92FF920F931F93CF93B2
:10333000DF93DA014901E114F1040105110509F4F3
:10334000ADC025013601A80197016D018B01EC018B
:10335000C301B20188279927442755270E947D1F62
:103360009B01AC0144275527E881F9810680F7814C
:10337000E02DB401CE010995FC012081AE014E5F24
:103380005F4FC60173E0969587957A95E1F7F7E070
:10339000CF22DD2420FF14C09C013695322F222736
:1033A00037952795200F311FFA01E20FF31F21E017
:1033B00030E001C0220FCA94EAF73081232B13C0FA
:1033C000FC01F695FE2FEE27F795E795E00FF11F2C
:1033D000E40FF51F21E030E001C0220FCA94EAF7A4
:1033E0002095308123232083BE016A5F7B4FFB0140
:1033F000D080AE01495F5B4F9E01275F3B4FDE01EE
:10340000A55FBB4F37965F01FA01DD2039F1C0801F
:10341000D1808C159D0508F46C01FA01D182C0821F
:10342000F901408151814817590708F4AC01F901AD
:10343000518340838D919C9111970817190708F4C7
:10344000C8018D939C93F50180819181801791072C
:1034500008F4C801F501918380830AC091838083B9
:10346000F901918380830D931C93F50111830083EF
:1034700081E0FB018083CE01DF91CF911F910F91FD
:10348000FF90EF90DF90CF90BF90AF909F908F9084
:103490007F906F905F904F900C944F0DDF91CF9184
:1034A0001F910F91FF90EF90DF90CF90BF90AF9062
:1034B0009F908F907F906F905F904F900895AF9204
:1034C000BF92CF92DF92EF92FF920F931F93DC0196
:1034D000ED91FC9172970190F081E02D8E0F9F1F6E
:1034E0000E9489191F910F91FF90EF90DF90CF906C
:1034F000BF90AF900895CF93DF9300D01F92CDB7C8
:10350000DEB7789484B5826084BD84B5816084BD63
:1035100085B5826085BD85B5816085BD80916E0071
:10352000816080936E0010928100809181008260A2
:1035300080938100809181008160809381008091DF
:1035400080008160809380008091B10084608093CE
:10355000B1008091B00081608093B00080917A00CA
:10356000846080937A0080917A00826080937A00F0
:1035700080917A00816080937A0080917A008068DF
:1035800080937A001092C100E0916102F091620292
:1035900082E08083E0915D02F0915E021082E09112
:1035A0005F02F09160028FEC808310926902E091DB
:1035B0006502F091660286E08083E0916302F091FB
:1035C0006402808180618083E0916302F0916402F3
:1035D000808188608083E0916302F0916402808141
:1035E00080688083E0916302F091640280818F7D26
:1035F00080834AE060E270E080E090E00E94EF1695
:103600000E94E7164AE061E070E080E090E00E94EE
:10361000EF160E94E7168FEF80930A078EEE92E076
:1036200090930D0780930C0710920B071092500295
:1036300010924F0210927207109294071092700726
:1036400081E080936F0710924A0761E082E10E9457
:10365000AB1861E083E10E94AB188091B9008E7FC6
:103660008093B9008091B9008D7F8093B90088E480
:103670008093B80085E48093BC0081E494E090934B
:103680004E0280934D0282E494E090934C0280932A
:103690004B0264E170E080E090E00E94F81860E086
:1036A000809109070E94AB1865E070E080E090E02F
:1036B0000E94F81861E0809109070E94AB1868EC3D
:1036C00070E080E090E00E94F8188DEF898312E1AD
:1036D0001A8322E030E040E0CE0101963C01BC01BB
:1036E0008AEF92E00E94BC078EEA898321E030E0F5
:1036F00040E0B3018AEF92E00E94BC0785ED898328
:1037000080EA8A8322E030E040E0B3018AEF92E071
:103710000E94BC0788EA89838FE38A8322E030E035
:1037200040E0B3018AEF92E00E94BC071A8219823E
:1037300083ED898322E030E040E0B3018AEF92E03C
:103740000E94BC0780E4898321E030E040E0B301BF
:103750008AEF92E00E94BC078AEF92E00E94401735
:1037600081EA898321E030E040E0B3018AEF92E012
:103770000E94BC0788EC898321E030E040E0B3017F
:103780008AEF92E00E94BC078AED89831A8322E0C7
:1037900030E040E0B3018AEF92E00E94BC0781E88C
:1037A00089838FE88A8322E030E040E0B3018AEF2A
:1037B00092E00E94BC0789ED898385E28A8322E03A
:1037C00030E040E0B3018AEF92E00E94BC078BED4D
:1037D000898384E38A8322E030E040E0B3018AEF0A
:1037E00092E00E94BC0784EA898321E030E040E057
:1037F000B3018AEF92E00E94BC0786EA898321E048
:1038000030E040E0B3018AEF92E00E94BC0780E024
:1038100094E0ECEFF2E0DF019C011D92215030407A
:10382000E1F78091000710920207109201078823A8
:10383000C9F080910307909104078730910510F437
:1038400087E090E0909304078093030710920607A7
:103850001092050780910707909108078F3791050F
:1038600068F40AC087E090E0909304078093030710
:1038700010920607109205078FE790E090930807D3
:103880008093070781E0809300078AEF92E00E940F
:103890004F0D8FEA898321E030E040E0B3018AEFE9
:1038A00092E00E94BC078CE08093B80055245A94A3
:1038B0005B821F92812C912C5401C12CD12C76015A
:1038C000C3948E010D5F1F4F21E030E04FE350E0C5
:1038D00060E070E08EE097E00E940F161F921F924A
:1038E0001F921F92A12CB12C90EAC92E91E4D92EDF
:1038F000E12CF12C0FEA13E420E030E040E251E447
:10390000CA01B9010E94D4145982E091FA02F091DF
:10391000FB023697808191811F921F921F921F9206
:103920001F921F927F926F92812C912C38E1A32ECF
:1039300032E4B32EC12CD12C44E3E42E42E4F42E25
:1039400000E010E020E731E4B901A80186509D4F66
:103950000E942E0F1982E091FA02F091FB02369735
:10396000808191811F921F921F921F921F921F921E
:103970007F926F92812C912C54E0A52E52E4B52EAB
:10398000C12CD12C60E2E62E62E4F62E00E010E0BD
:1039900020EA31E4B901A80186509D4F0E942E0F04
:1039A0005982E091FA02F091FB0236978081918171
:1039B000DC01A650BD4F4D01ED91FC9111970084A3
:1039C000F185E02D20E030E0A901B301CD0109959A
:1039D0005C01C12CD12C70EEE72E71E4F72E00E0D3
:1039E00010E020E032E440E050E068EC72E4C40112
:1039F0000E9446101982E091FA02F091FB0236977C
:103A0000808191819C0126503D4F4901D901ED9162
:103A1000FC910084F185E02D20E030E0A901B301A4
:103A2000C40109955C01C12CD12CE8E8EE2EE1E43B
:103A3000FE2E00E010E020EE31E440E050E060EBCC
:103A400072E4C4010E9446100FB6F894DEBF0FBEA8
:103A5000CDBF99249A949982E091FA02F091FB02E9
:103A6000369780819181730100E010E020E030E41E
:103A700040E050E06CEF72E486509D4F0E94B40E1F
:103A800068EE73E080E090E00E94F8181982E091FF
:103A9000FA02F091FB0236978081918100E010E0FC
:103AA00020E030E440E050E06CEF72E486509D4F3F
:103AB0000E94B40E68EE73E080E090E00E94F81877
:103AC0000E940504C8CFCF93DF93E1E5F2E01382B3
:103AD000128288EE93E0A0E0B0E084839583A68311
:103AE000B78325E031E03183208325EC30E0358752
:103AF000248724EC30E03787268720EC30E0318BB8
:103B0000208B21EC30E0338B228B22EC30E0358BA4
:103B1000248B26EC30E0378B268B118E128E138E81
:103B2000148EEEEEF2E01382128284839583A683D4
:103B3000B78387E191E091838083109211071092FF
:103B40001007CEE0D7E089E291E09983888380E88E
:103B500090E0909313078093120780E490E0909395
:103B600015078093140788E197E0909317078093D7
:103B70001607BC01CE010E94CB0482E090E0909336
:103B8000FD068093FC061092000710920207109227
:103B90000107109204071092030710920607109273
:103BA0000507109208071092070780E190E09093B4
:103BB000FF068093FE0687E491E09093FB028093DA
:103BC000FA028FE691E099838883DF91CF9108957F
:103BD0005058BB27AA270E94001E0C94081F0E9461
:103BE000FA1E38F00E94011F20F039F49F3F19F4AB
:103BF00026F40C94F71E0EF4E095E7FB0C94F11EEE
:103C0000E92F0E94191F58F3BA1762077307840738
:103C1000950720F079F4A6F50C943B1F0EF4E0957F
:103C20000B2EBA2FA02D0B01B90190010C01CA0176
:103C3000A0011124FF27591B99F0593F50F4503E21
:103C400068F11A16F040A22F232F342F4427585F13
:103C5000F3CF469537952795A795F0405395C9F72B
:103C60007EF41F16BA0B620B730B840BBAF09150E3
:103C7000A1F0FF0FBB1F661F771F881FC2F70EC082
:103C8000BA0F621F731F841F48F487957795679555
:103C9000B795F7959E3F08F0B0CF9395880F08F041
:103CA0009927EE0F9795879508950E94CD1E08F4E9
:103CB00081E008950E94611E6894B1110C943C1F2C
:103CC00008950E94211F88F09F5798F0B92F9927D7
:103CD000B751B0F0E1F0660F771F881F991F1AF0F7
:103CE000BA95C9F714C0B13091F00E943B1FB1E002
:103CF00008950C943B1F672F782F8827B85F39F001
:103D0000B93FCCF3869577956795B395D9F73EF48F
:103D100090958095709561957F4F8F4F9F4F089537
:103D2000E89409C097FB3EF4909580957095619555
:103D30007F4F8F4F9F4F9923A9F0F92F96E9BB270B
:103D40009395F695879577956795B795F111F8CF87
:103D5000FAF4BB0F11F460FF1BC06F5F7F4F8F4FF2
:103D60009F4F16C0882311F096E911C0772321F0E8
:103D70009EE8872F762F05C0662371F096E8862F80
:103D800070E060E02AF09A95660F771F881FDAF7D7
:103D9000880F9695879597F90895990F0008550F04
:103DA000AA0BE0E8FEEF16161706E807F907C0F0C1
:103DB00012161306E407F50798F0621B730B840BC9
:103DC000950B39F40A2661F0232B242B252B21F4A3
:103DD00008950A2609F4A140A6958FEF811D811D43
:103DE000089597F99F6780E870E060E008959FEF7D
:103DF00080EC089500240A94161617061806090682
:103E0000089500240A941216130614060506089550
:103E1000092E0394000C11F4882352F0BB0F40F4D8
:103E2000BF2B11F460FF04C06F5F7F4F8F4F9F4F18
:103E3000089557FD9058440F551F59F05F3F71F09A
:103E40004795880F97FB991F61F09F3F79F0879501
:103E50000895121613061406551FF2CF4695F1DF8A
:103E600008C0161617061806991FF1CF869571051A
:103E7000610508940895E894BB2766277727CB014E
:103E800097F908950E94CD1E08F48FEF0895AA1B9C
:103E9000BB1B51E107C0AA1FBB1FA617B70710F035
:103EA000A61BB70B881F991F5A95A9F78095909567
:103EB000BC01CD010895A1E21A2EAA1BBB1BFD0176
:103EC0000DC0AA1FBB1FEE1FFF1FA217B307E407F9
:103ED000F50720F0A21BB30BE40BF50B661F771F51
:103EE000881F991F1A9469F7609570958095909531
:103EF0009B01AC01BD01CF010895052E97FB1EF477
:103F000000940E94941F57FD07D00E945B1F07FC7E
:103F100003D04EF40C94941F509540953095219504
:103F20003F4F4F4F5F4F08959095809570956195E5
:103F30007F4F8F4F9F4F0895EE0FFF1F0590F49115
:103F4000E02D099481E090E0F8940C94A71FF89478
:023F5000FFCFA1
:103F52000100000000960303032D03E3035E033C0C
:103F6200035003000000009C046F048306430467AF
:103F720004530444040000000088060303830682FD
:103F8200068606CB04860697077207D30A9F05109A
:103F920005140400000000BC07810681067D198912
:103FA200197C1900000000000000000000ECFBEC8E
:103FB200FBECFB0000000000000000ECFB000088AE
:103FC200060303830682067D197C195F1A9707721E
:0A3FD20007D30A9F0510050D0A0031
:107E0000112484B714BE81FFF0D085E080938100F7
:107E100082E08093C00088E18093C10086E0809377
:107E2000C20080E18093C4008EE0C9D0259A86E02C
:107E300020E33CEF91E0309385002093840096BBD3
:107E4000B09BFECF1D9AA8958150A9F7CC24DD24C4
:107E500088248394B5E0AB2EA1E19A2EF3E0BF2EE7
:107E6000A2D0813461F49FD0082FAFD0023811F036
:107E7000013811F484E001C083E08DD089C08234E0
:107E800011F484E103C0853419F485E0A6D080C0E4
:107E9000853579F488D0E82EFF2485D0082F10E0AE
:107EA000102F00270E291F29000F111F8ED06801E7
:107EB0006FC0863521F484E090D080E0DECF843638
:107EC00009F040C070D06FD0082F6DD080E0C81688
:107ED00080E7D80618F4F601B7BEE895C0E0D1E017
:107EE00062D089930C17E1F7F0E0CF16F0E7DF06D8
:107EF00018F0F601B7BEE89568D007B600FCFDCFD4
:107F0000A601A0E0B1E02C9130E011968C91119780
:107F100090E0982F8827822B932B1296FA010C0160
:107F200087BEE89511244E5F5F4FF1E0A038BF0790
:107F300051F7F601A7BEE89507B600FCFDCF97BE46
:107F4000E89526C08437B1F42ED02DD0F82E2BD052
:107F50003CD0F601EF2C8F010F5F1F4F84911BD097
:107F6000EA94F801C1F70894C11CD11CFA94CF0C13
:107F7000D11C0EC0853739F428D08EE10CD085E9AC
:107F80000AD08FE07ACF813511F488E018D01DD067
:107F900080E101D065CF982F8091C00085FFFCCF94
:107FA0009093C60008958091C00087FFFCCF809118
:107FB000C00084FD01C0A8958091C6000895E0E648
:107FC000F0E098E1908380830895EDDF803219F02E
:107FD00088E0F5DFFFCF84E1DECF1F93182FE3DFCA
:107FE0001150E9F7F2DF1F91089580E0E8DFEE27F6
:047FF000FF270994CA
:027FFE00040479
:0400000300007E007B
:00000001FF
